:020000040800F2
:100000000030002025350008A9340008AF3400086E
:10001000B5340008BB340008C134000800000000FB
:10002000000000000000000000000000C7340008CD
:10003000D534000800000000E3340008F134000863
:1000400075350008753500087535000875350008E8
:1000500075350008753500087535000875350008D8
:1000600075350008753500087535000875350008C8
:1000700075350008753500087535000875350008B8
:1000800075350008753500087535000875350008A8
:100090007535000875350008753500087535000898
:1000A0007535000875350008753500087535000888
:1000B000753500087535000800000000753500082A
:1000C00075350008000000000000000075350008CC
:1000D000000000007535000875350008753500080A
:1000E00075350008753500080000000000000000AC
:1000F0000000000000000000000000000000000000
:1001000000000000000000000000000000000000EF
:10011000000000000000000075350008753500087B
:1001200000000000000000000000000000000000CF
:1001300000000000000000000000000000000000BF
:100140007535000875350008000000007535000899
:1001500075350008753500087535000875350008D7
:10016000753500087535000800000000000000002B
:10017000000000000000000000000000000000007F
:080180000000000075350008C5
:1001880010B5054C237833B9044B13B10448AFF3C9
:1001980000800123237010BD04030020000000002C
:1001A800D035000808B5034B1BB103490348AFF32A
:1001B800008008BD0000000008030020D0350008BA
:1001C80080B483B000AF786039607B681B6B23F024
:1001D8000F023B681A437B681A6300BF0C37BD46A1
:1001E8005DF8047B704780B483B000AF78607B68AB
:1001F8009B6803F00103012B0CBF01230023DBB232
:1002080018460C37BD465DF8047B704790B585B03D
:1002180000AF786039600023FB734FF0A040FFF710
:10022800E2FF04461748FFF7DEFF03462343002B8F
:1002380020D13B685B68002B12D07B689A68124B10
:1002480013403A6811683A68526811433A689268EC
:1002580011433A68D2680A431A437B689A600BE0F4
:100268007B689A68084B13403A6812681A437B689F
:100278009A6001E00123FB73FB7B18461437BD46E7
:1002880090BD00BF00010050E030FCFF80B584B095
:1002980000AF786039600023FB737868FFF7A3FF2D
:1002A8000346002B11D17B68DB6823F4804323F0DD
:1002B80038033A6811683A68526811433A68926894
:1002C8000A431A437B68DA6001E00123FB73FB7B76
:1002D80018461037BD4680BD80B584B000AF786041
:1002E80039600023FB737868FFF77DFF0346002B16
:1002F80032D13B685B68002B15D07B68DA681A4BF3
:1003080013403A6811683A68926811433A68D268AB
:1003180011433A68126911433A6852690A431A4309
:100328007B68DA6011E07B68DA680F4B13403A6843
:1003380011683A68D26811433A68126911433A68F9
:1003480052690A431A437B68DA603B685B6819465E
:100358007868FFF735FF01E00123FB73FB7B184644
:100368001037BD4680BD00BF3CC0F0FF80B483B0ED
:1003780000AF78600549054B1A687B6813430B602A
:1003880000BF0C37BD465DF8047B70470004014090
:1003980080B483B000AF78600549054B1A6A7B6862
:1003A80013430B6200BF0C37BD465DF8047B7047F2
:1003B8000004014080B483B000AF78600649064B62
:1003C8001A687B68DB4313400B6000BF0C37BD46DF
:1003D8005DF8047B704700BF0004014080B483B01F
:1003E80000AF78600649064B1A6A7B68DB43134006
:1003F8000B6200BF0C37BD465DF8047B704700BF39
:100408000004014080B483B000AF78600549054B13
:100418005A687B6813434B6000BF0C37BD465DF8D4
:10042800047B70470004014080B483B000AF78605B
:100438000549054B5A6A7B6813434B6200BF0C376A
:10044800BD465DF8047B70470004014080B483B06A
:1004580000AF78600649064B5A687B68DB43134057
:100468004B6000BF0C37BD465DF8047B704700BF8A
:100478000004014080B483B000AF78600649064BA1
:100488005A6A7B68DB4313404B6200BF0C37BD469A
:100498005DF8047B704700BF0004014080B483B05E
:1004A80000AF78600549054B9A687B6813438B60F9
:1004B80000BF0C37BD465DF8047B7047000401405F
:1004C80080B483B000AF78600549054B9A6A7B68B1
:1004D80013438B6200BF0C37BD465DF8047B704741
:1004E8000004014080B483B000AF78600649064B31
:1004F8009A687B68DB4313408B6000BF0C37BD46AE
:100508005DF8047B704700BF0004014080B483B0ED
:1005180000AF78600649064B9A6A7B68DB43134054
:100528008B6200BF0C37BD465DF8047B704700BF87
:100538000004014080B483B000AF78600549054BE2
:10054800DA687B681343CB6000BF0C37BD465DF8A3
:10055800047B70470004014080B483B000AF78602A
:100568000549054BDA6A7B681343CB6200BF0C3739
:10057800BD465DF8047B70470004014080B483B039
:1005880000AF78600649064BDA687B68DB431340A6
:10059800CB6000BF0C37BD465DF8047B704700BFD9
:1005A8000004014080B483B000AF78600649064B70
:1005B800DA6A7B68DB431340CB6200BF0C37BD4669
:1005C8005DF8047B704700BF0004014080B584B02B
:1005D80000AF78600023FB737B681B7A002B00F068
:1005E800C1807B681B68002B5BD07B685B7A012B22
:1005F8000ED0022B17D0002B20D17B681B68184621
:10060800FFF724FF7B681B681846FFF7AFFE18E06A
:100618007B681B681846FFF7CDFE7B681B68184689
:10062800FFF7F0FE0DE07B681B681846FFF79EFE9B
:100638007B681B681846FFF7E5FE02E00123FB73A1
:1006480000BF7B689B7A002B2BD07B689B7A022BA0
:100658000ED0032B17D0012B20D17B681B681846BE
:10066800FFF78CFF7B681B681846FFF717FF18E039
:100678007B681B681846FFF735FF7B681B681846C0
:10068800FFF758FF0DE07B681B681846FFF706FF69
:100698007B681B681846FFF74DFF02E00123FB73D8
:1006A80000BF7B685B68002B70D07B685B7A012B8E
:1006B8000ED0022B17D0002B20D17B685B68184620
:1006C800FFF7D8FE7B685B681846FFF761FE18E005
:1006D8007B685B681846FFF781FE7B685B68184695
:1006E800FFF7A2FE0DE07B685B681846FFF750FE37
:1006F8007B685B681846FFF797FE02E00123FB73EF
:1007080000BF7B689B7A002B40D07B689B7A022BCA
:100718000ED0032B17D0012B20D17B685B681846BD
:10072800FFF740FF7B685B681846FFF7C9FE2DE0BE
:100738007B685B681846FFF7E9FE7B685B681846CC
:10074800FFF70AFF22E07B685B681846FFF7B8FEF0
:100758007B685B681846FFF7FFFE17E00123FB7311
:1007680000BF13E07B681B681846FFF723FE7B6811
:100778001B681846FFF76AFE7B685B681846FFF738
:100788002DFE7B685B681846FFF774FEFB7B1846F6
:100798001037BD4680BD80B489B000AFF860B9603D
:1007A8007A60FB681A68BB687B617B6993FAA3F37C
:1007B8003B613B69B3FA83F3DBB25B00032101FAC7
:1007C80003F3DB431A40BB68FB61FB6993FAA3F3AD
:1007D800BB61BB69B3FA83F3DBB25B00796801FAEA
:1007E80003F31A43FB681A6000BF2437BD465DF85F
:1007F800047B704780B485B000AFF860B9607A6058
:10080800FB685A68BB68DB431A40BB68796801FB20
:1008180003F31A43FB685A6000BF1437BD465DF8FE
:10082800047B704780B489B000AFF860B9607A6023
:10083800FB689A68BB687B617B6993FAA3F33B61A9
:100848003B69B3FA83F3DBB25B00032101FA03F3DC
:10085800DB431A40BB68FB61FB6993FAA3F3BB61F6
:10086800BB69B3FA83F3DBB25B00796801FA03F37F
:100878001A43FB689A6000BF2437BD465DF8047BC5
:10088800704780B489B000AFF860B9607A60FB68DF
:10089800DA68BB687B617B6993FAA3F33B613B69C8
:1008A800B3FA83F3DBB25B00032101FA03F3DB4302
:1008B8001A40BB68FB61FB6993FAA3F3BB61BB6990
:1008C800B3FA83F3DBB25B00796801FA03F31A43E6
:1008D800FB68DA6000BF2437BD465DF8047B7047CB
:1008E80080B489B000AFF860B9607A60FB681A6AB2
:1008F800BB687B617B6993FAA3F33B613B69B3FAFD
:1009080083F3DBB29B000F2101FA03F3DB431A40A8
:10091800BB68FB61FB6993FAA3F3BB61BB69B3FADC
:1009280083F3DBB29B00796801FA03F31A43FB688F
:100938001A6200BF2437BD465DF8047B704780B457
:1009480089B000AFF860B9607A60FB685A6ABB6822
:100958001B0A7B617B6993FAA3F33B613B69B3FA9A
:1009680083F3DBB29B000F2101FA03F3DB431A4048
:10097800BB681B0AFB61FB6993FAA3F3BB61BB6904
:10098800B3FA83F3DBB29B00796801FA03F31A43E5
:10099800FB685A6200BF2437BD465DF8047B704788
:1009A80080B588B000AF786039603B681B687B61B0
:1009B8007B6993FAA3F33B613B69B3FA83F3DBB238
:1009C800FB6151E03B681A680121FB6901FA03F3F6
:1009D8001340BB61BB69002B43D03B685B68012BAC
:1009E80003D03B685B68022B0ED13B689B681A46B4
:1009F800B9697868FFF716FF3B6819683B68DB68D8
:100A08001A467868FFF7F6FE3B681B691A46B9690B
:100A18007868FFF736FF3B685B68022B1AD1BB6921
:100A2800FB60FB6893FAA3F3BB60BB68B3FA83F37C
:100A3800DBB2072B07D83B685B691A46B969786847
:100A4800FFF74EFF06E03B685B691A46B9697868AC
:100A5800FFF775FF3B685B681A46B9697868FFF766
:100A68009AFEFB690133FB613B681A68FB6922FA4D
:100A780003F3002BA6D1002318462037BD4680BDBE
:100A880080B483B000AF786039607B689B6823F0DE
:100A980040023B681A437B689A6000BF0C37BD462A
:100AA8005DF8047B704780B483B000AF78607B68E2
:100AB8009B6803F0400318460C37BD465DF8047B7D
:100AC800704780B483B000AF78607B684FF0FF3226
:100AD800DA6000BF0C37BD465DF8047B704780B410
:100AE80083B000AF78607B686FF08002DA6000BF87
:100AF8000C37BD465DF8047B704780B483B000AF07
:100B080078607B689B6803F02003202B0CBF0123CF
:100B18000023DBB218460C37BD465DF8047B7047EE
:100B280080B483B000AF786039607B681B6923F4B8
:100B3800FE023B681B041A437B681A6100BF0C372E
:100B4800BD465DF8047B704780B483B000AF786021
:100B580039607B681B6923F4FF4323F07F033A68FD
:100B68001A437B681A6100BF0C37BD465DF8047BE9
:100B7800704780B483B000AF78607B68FF225A6208
:100B880000BF0C37BD465DF8047B704780B483B066
:100B980000AF78607B68CA225A627B6853225A6227
:100BA80000BF0C37BD465DF8047B704780B487B042
:100BB80000AFF860B9607A603B6000237B617B68B6
:100BC8001B0403F47F02BB681A433B681B029BB2F9
:100BD8001A433B6ADBB213437B61FB681B6823F053
:100BE8007F1323F4FE437A691A43FB681A6000BF37
:100BF8001C37BD465DF8047B7047000080B487B0A1
:100C080000AFF860B9607A603B6000237B61BB6825
:100C18005A033B6A1B0403F47F031A433B681B0215
:100C28009BB21A437B68DBB213437B61FB685A684B
:100C3800054B13407A691A43FB685A6000BF1C379A
:100C4800BD465DF8047B7047C00000FF80B483B0E8
:100C580000AF78607B68DB6803F04003402B0CBF73
:100C680001230023DBB218460C37BD465DF8047B30
:100C7800704780B483B000AF78607B68DB6803F0AE
:100C88002003202B0CBF01230023DBB218460C37AE
:100C9800BD465DF8047B704780B483B000AF7860D0
:100CA8007B68DB6803F0800363F0A0027B68DA608E
:100CB80000BF0C37BD465DF8047B704780B400AFB9
:100CC800074B1B6803F48033B3F5803F0CBF012347
:100CD8000023DBB21846BD465DF8047B704700BFB1
:100CE80010E000E080B584B000AF7860396001237F
:100CF800FB737868FFF74AFF786800F099F90346B4
:100D0800012B16D03B681B6819467868FFF7B8FEB8
:100D18003B689B6819467868FFF716FF3B685B6875
:100D280019467868FFF7FCFE7868FFF7D8FE0023BD
:100D3800FB737868FFF71DFFFB7B18461037BD462D
:100D480080BD0000F0B589B002AFF860B9607A6084
:100D58000123FB75BB68002B09D1F868FFF7A3FED8
:100D68000346002B0CD17B6800221A6008E0F86863
:100D7800FFF799FE0346002B02D17B6800221A6018
:100D8800F868FFF703FFF86800F052F90346012BF3
:100D980073D0BB68002B0FD07B6819687B681B7900
:100DA8001A467B685B7918467B689B7900930346F3
:100DB800F868FFF7FBFE4FE07B681C687B681B79CF
:100DC800324AA2FB0323DB08DBB21B01D8B27B68E3
:100DD8001A792E4BA3FB0213D9080B469B000B4430
:100DE8005B00D31ADBB20343DBB21D467B685B7939
:100DF800264AA2FB0323DB08DBB21B01D8B27B68BF
:100E08005A79224BA3FB0213D9080B469B000B44CB
:100E18005B00D31ADBB20343DBB21E467B689B79C7
:100E28001A4AA2FB0323DB08DBB21B01D8B27B689A
:100E38009A79164BA3FB0213D9080B469B000B4467
:100E48005B00D31ADBB20343DBB2009333462A4676
:100E58002146F868FFF7AAFEF868FFF740FEF86831
:100E6800FFF74BFE0346002B05D1F86800F015F993
:100E78000346FB7501E00023FB75F868FFF779FE70
:100E8800FB7D18461C37BD46F0BD00BFCDCCCCCC91
:100E980080B483B000AF78607B6800221A607B68FA
:100EA80000221A717B6800225A717B6800229A71AD
:100EB80000BF0C37BD465DF8047B7047F0B589B0BC
:100EC80002AFF860B9607A600123FB75BB68002B3C
:100ED8000ED17B685B7803F01003002B08D07B6889
:100EE8005B7823F01003DBB20A33DAB27B685A70FE
:100EF800F868FFF74BFEF86800F09AF80346012BF4
:100F080075D0BB68002B10D07B681B7819467B68AE
:100F18009B781A467B685B7818467B68DB78009379
:100F28000346F868FFF76AFE50E07B681B781C46AA
:100F38007B689B78324AA2FB0323DB08DBB21B01E8
:100F4800D8B27B689A782E4BA3FB0213D9080B46BC
:100F58009B000B445B00D31ADBB20343DBB21D4694
:100F68007B685B78264AA2FB0323DB08DBB21B0104
:100F7800D8B27B685A78224BA3FB0213D9080B46D8
:100F88009B000B445B00D31ADBB20343DBB21E4663
:100F98007B68DB781A4AA2FB0323DB08DBB21B0160
:100FA800D8B27B68DA78164BA3FB0213D9080B4634
:100FB8009B000B445B00D31ADBB20343DBB2009304
:100FC80033462A462146F868FFF718FEF868FFF707
:100FD80086FDF868FFF791FD0346002B05D1F868F8
:100FE80000F05BF80346FB7501E00023FB75F86829
:100FF800FFF7BFFDFB7D18461C37BD46F0BD00BF9F
:10100800CDCCCCCC80B483B000AF78607B680122B3
:101018001A707B6801229A707B6801225A707B687B
:101028000022DA7000BF0C37BD465DF8047B7047BC
:1010380080B586B000AF78604FF47A73FB60002308
:10104800FB7500233B617868FFF700FE0346002B21
:101058001ED17868FFF735FD7868FFF7F7FD38612E
:1010680010E0FFF72BFE0346012B02D1FB68013B82
:10107800FB607868FFF7EAFD3861FB68002B01D157
:101088000123FB75FB68002B02D03B69012BE8D1DB
:10109800FB7D18461837BD4680BD80B586B000AFC9
:1010A80078604FF47A73FB600023FB7500233B6183
:1010B8007868FFF7F1FD7868FFF7DBFD386110E02D
:1010C800FFF7FCFD0346012B02D1FB68013BFB60E7
:1010D8007868FFF7CEFD3861FB68002B01D101234A
:1010E800FB75FB68002B02D03B69002BE8D1FB7D28
:1010F800012B1ED04FF47A73FB607868FFF7B9FDB7
:10110800386110E0FFF7DAFD0346012B02D1FB68D6
:10111800013BFB607868FFF7ACFD3861FB68002B8A
:1011280001D10123FB75FB68002B02D03B69012B21
:10113800E8D1FB7D18461837BD4680BD80B483B022
:1011480000AF78607B681B6803F04003402B01D137
:10115800012300E0002318460C37BD465DF8047BE8
:10116800704780B483B000AF786039607B685B6893
:1011780023F480523B681A437B685A6000BF0C37DF
:10118800BD465DF8047B704780B483B000AF7860DB
:1011980039603B689BB21A467B681A6100BF0C37FE
:1011A800BD465DF8047B704780B584B000AF7860B9
:1011B80039600123FB737868FFF7C0FF0346002BF3
:1011C80045D17B681B6823F47F4323F0BF033A684B
:1011D80011683A68526811433A68D26811433A680C
:1011E800126911433A68526911433A689269114386
:1011F8003A68D26911433A68126A0A431A437B680B
:101208001A607B685B6823F4706323F004033A6810
:1012180091683A685269120C0A431A437B685A600B
:101228003B689B68B3F5006F04D24FF4805178682F
:10123800FFF797FF3B681B6AB3F5005F05D13B6872
:101248005B6A19467868FFF79FFF0023FB73FB7BF7
:1012580018461037BD4680BD80B483B000AF7860B3
:10126800396009497A683B68B2FBF3F3013B4B608C
:10127800054B00229A60044B05221A6000BF0C3708
:10128800BD465DF8047B704710E000E080B582B091
:1012980000AF78604FF47A717868FFF7DDFF00BF20
:1012A8000837BD4680BD000080B485B000AF7860C7
:1012B8000E4B1B68FB60FB687B68B3F1FF3F0CD0EB
:1012C8007B6801337B6008E0084B1B6803F48033BC
:1012D800002B02D07B68013B7B607B68002BF3D13D
:1012E80000BF1437BD465DF8047B704710E000E08E
:1012F80080B483B000AF7860044A7B68136000BF95
:101308000C37BD465DF8047B704700BF0003002022
:1013180080B584B000AF03463960FB710523FB73C9
:101328000023BB73FB79022B12D107F10E0307F1DF
:101338000F02F979202001F06DFABB7B002B07D151
:1013480007F10E0307F10F02F979012001F062FAA3
:10135800FB79032B12D107F10E0307F10F020321CA
:10136800012001F057FABB7B002B07D107F10E03D0
:1013780007F10F020321022001F04CFAFB79012B3F
:1013880007D107F10E0307F10F020121102001F028
:1013980041FAFA7B3B681A7000BF1037BD4680BD22
:1013A80080B483B000AF786039607B683A689A612E
:1013B80000BF0C37BD465DF8047B704780B483B02E
:1013C80000AF786039607B683A689A6200BF0C3772
:1013D800BD465DF8047B704780B582B000AF034618
:1013E800FB7102F023F84FF480714FF09040FFF743
:1013F800D7FFFB79184602F02DF802F021F800BF5C
:101408000837BD4680BD80B582B000AF0346FB718A
:1014180002F00CF84FF480714FF09040FFF7CEFFC8
:10142800FB79184602F016F802F00AF800BF0837F0
:10143800BD4680BD80B584B000AF786008461146CF
:101448001A460346FB700B46BB7013467B7000239D
:10145800BB73BB78013B002B00DA0733DB10DAB231
:101468007B7813447B73BB7803F00703DBB2002B54
:1014780002D07B7B01337B737B7B032B01D9032356
:101488007B733A7EFB781344DBB2013B3B7397F9DD
:101498000C30002B01DA7F233B734020FFF7B3FFAA
:1014A8007B78FB7334E097F90F3003F00F035BB2DE
:1014B80063F04F035BB2DBB21846FFF7A4FF3B7E35
:1014C800FB721EE0FB7A03F00F03DBB21846FFF74E
:1014D8009AFFFB7A1B09DBB25BB243F010035BB2E5
:1014E800DBB21846FFF78FFFBB7B5A1CBA731A464C
:1014F8007B6813441B781846FFF76EFFFB7A0133AD
:10150800FB72FA7A3B7B9A42DCD9FB7B0133FB7393
:10151800FA7B7B7B9A42C6D9AF20FFF774FF00BFE6
:101528001037BD4680BD000080B584B002AF0346C9
:10153800FB710B46BB7113467B71FA7913465B004E
:1015480013445B001A46074BD018BA797B7900938D
:10155800134608220621FFF76DFF00BF0837BD4676
:1015680080BD00BF0000002080B584B000AF786067
:10157800084611461A460346FB700B46BB701346D5
:101588007B7000237B730023BB730023FB7314E081
:10159800FB7B7A6813441878FA787B7B1344D9B2BA
:1015A800BA78BB7B1344DBB21A46FFF7BDFFBB7B9F
:1015B8000733BB73FB7B0133FB73FA7B7B789A425F
:1015C800E6D300BF1037BD4680BD000080B584B0AB
:1015D80000AF002000F0E5F80346184600F0F7F8E1
:1015E8000346FB73012000F0DCF80346184600F0C0
:1015F800F7F90346BB73BA7B214BA3FB0213D90847
:101608000B469B000B445B00D31A7B73BB7B1C4AC5
:10161800A2FB0323DB083B73FA7B194BA3FB0213E2
:10162800D9080B469B000B445B00D31AFB72FB7B6B
:10163800134AA2FB0323DB08BB72BB7A3033DBB24D
:101648003B70FB7A3033DBB27B703A23BB703B7B59
:101658003033DBB2FB707B7B3033DBB23B713A2338
:101668007B713023BB713023FB7138460823282255
:101678000221FFF779FF00BF1037BD4680BD00BFCC
:10168800CDCCCCCC80B584B000AFB023FB71A42006
:10169800FFF7B9FEAE20FFF7B6FE4020FFF7B3FE16
:1016A8000023FB6030E0FB68DBB203F00F03DBB222
:1016B80063F04F03DBB21846FFF7A5FE0023BB60BB
:1016C80019E0BB68DBB203F00F03DBB21846FFF783
:1016D8009AFEBB681B09DBB203F00F03DBB243F0D1
:1016E8001003DBB21846FFF78EFE0020FFF774FEEA
:1016F800BB680133BB60BB687F2BE2D9FB79013340
:10170800FB71FB680133FB60FB68032BCBD9AF206F
:10171800FFF779FE00BF1037BD4680BD80B500AF2A
:1017280001F01CFE40214FF09040FFF747FE642077
:10173800FFF7BAFD40214FF09040FFF731FE6420DB
:10174800FFF7B2FDA020FFF75EFEAE20FFF75BFEBD
:10175800C820FFF758FEA020FFF755FE2F20FFF7FF
:1017680052FE2120FFF74FFE8120FFF74CFE20207C
:10177800FFF749FE4020FFF746FEA420FFF743FE8F
:10178800AF20FFF740FEFFF77DFF00BF80BD80B5AB
:1017980000AF00F0F3FD00F08FFE00F09EFE00BFEA
:1017A80080BD80B584B000AF0346FB710023FB8188
:1017B800FB79184600F0A2FE00F0C4FE00F0D6FE49
:1017C8000346FB81FB8918461037BD4680BD80B4AF
:1017D80085B000AF0346FB800023FB60FB882A2B03
:1017E80002D80123FB60F3E0FB882A2B05D9FB888C
:1017F800552B02D80223FB60EAE0FB88552B05D95C
:10180800FB88802B02D80323FB60E1E0FB88802B58
:1018180005D9FB88AB2B02D80423FB60D8E0FB88F2
:10182800AB2B05D9FB88D62B02D80523FB60CFE06C
:10183800FB88D62B06D9FB88B3F5817F02D2062315
:10184800FB60C5E0FB88B3F5817F06D3FB88B3F561
:10185800967F02D80723FB60BAE0FB88B3F5967F32
:1018680006D9FB88B3F5AC7F02D20823FB60AFE052
:10187800FB88B3F5AC7F06D3FB88B3F5C17F02D8EC
:101888000923FB60A4E0FB88B3F5C17F06D9FB8878
:10189800B3F5D77F02D20A23FB6099E0FB88B3F542
:1018A800D77F06D3FB88B3F5EC7F02D80B23FB6008
:1018B8008EE0FB88B3F5EC7F06D9FB88B3F5017F92
:1018C80002D20C23FB6083E0FB88B3F5017F07D3CA
:1018D800FB8840F22E22934202D80D23FB6077E06A
:1018E800FB8840F22E22934207D9FB8840F2592206
:1018F800934202D80E23FB606AE0FB8840F259222B
:10190800934206D9FB88B3F5217F02D80F23FB60E9
:101918005EE0FB88B3F5217F06D9FB88B3F52C7F01
:1019280002D21023FB6053E0FB88B3F52C7F07D964
:10193800FB8840F2DA22934202D81123FB6047E089
:10194800FB8840F2DA22934207D9FB8840F205323D
:10195800934202D81223FB603AE0FB8840F205323A
:10196800934206D9FB88B3F54C7F02D81323FB605A
:101978002EE0FB88B3F54C7F06D9FB88B3F5577F7B
:1019880002D21423FB6023E0FB88B3F5577F07D30B
:10199800FB8840F28632934202D81523FB6017E099
:1019A800FB8840F28632934207D9FB8840F2B13275
:1019B800934202D81623FB600AE0FB8840F2B1325A
:1019C800934205D9FB88B3F5806F01D81723FB60D4
:1019D800FB68DBB218461437BD465DF8047B7047D8
:1019E80080B485B000AF0346FB800023FB60FB8812
:1019F800112B02D80023FB6086E2FB88112B05D946
:101A0800FB88222B02D80123FB607DE2FB88222B76
:101A180005D9FB88332B02D80223FB6074E2FB88CC
:101A2800332B05D9FB88442B02D80323FB606BE2D8
:101A3800FB88442B05D9FB88552B02D80423FB606F
:101A480062E2FB88552B05D9FB88662B02D8052353
:101A5800FB6059E2FB88662B05D9FB88772B02D8F7
:101A68000623FB6050E2FB88772B05D9FB88882B7F
:101A780002D80723FB6047E2FB88882B05D9FB883F
:101A8800992B02D80823FB603EE2FB88992B05D9E5
:101A9800FB88AA2B02D80923FB6035E2FB88AA2B16
:101AA80005D9FB88BB2B02D80A23FB602CE2FB88F4
:101AB800BB2B05D9FB88CC2B02D80B23FB6023E278
:101AC800FB88CC2B05D9FB88DD2B02D80C23FB60C7
:101AD8001AE2FB88DD2B05D9FB88EE2B02D80D23F3
:101AE800FB6011E2FB88EE2B05D9FB88FF2B02D89F
:101AF8000E23FB6008E2FB88FF2B06D9FB88B3F5B1
:101B0800887F02D80F23FB60FEE1FB88B3F5887F4E
:101B180006D9FB88B3F5917F02D21023FB60F3E16D
:101B2800FB88B3F5917F06D3FB88B3F5997F02D87C
:101B38001123FB60E8E1FB88B3F5997F06D9FB88A0
:101B4800B3F5A27F02D21223FB60DDE1FB88B3F577
:101B5800A27F06D3FB88B3F5AA7F02D81323FB60C4
:101B6800D2E1FB88B3F5AA7F06D9FB88B3F5B37F2A
:101B780002D21423FB60C7E1FB88B3F5B37F06D319
:101B8800FB88B3F5BB7F02D81523FB60BCE1FB885B
:101B9800B3F5BB7F06D9FB88B3F5C47F02D2162301
:101BA800FB60B1E1FB88B3F5C47F06D3FB88B3F5CE
:101BB800CC7F02D81723FB60A6E1FB88B3F5CC7F66
:101BC80006D9FB88B3F5D57F02D21823FB609BE1C9
:101BD800FB88B3F5D57F06D3FB88B3F5DD7F02D844
:101BE8001923FB6090E1FB88B3F5DD7F06D9FB88FC
:101BF800B3F5E67F02D21A23FB6085E1FB88B3F5D3
:101C0800E67F06D3FB88B3F5EE7F02D81B23FB6083
:101C18007AE1FB88B3F5EE7F06D9FB88B3F5F77F49
:101C280002D21C23FB606FE1FB88B3F5F77F06D374
:101C3800FB88B3F5FF7F02D81D23FB6064E1FB88B6
:101C4800B3F5FF7F06D9FB88B3F5047F02D21E23C4
:101C5800FB6059E1FB88B3F5047F06D3FB88B3F535
:101C6800087F02D81F23FB604EE1FB88B3F5087F8D
:101C780007D9FB8840F23122934202D82023FB6027
:101C880042E1FB8840F23122934207D9FB8840F2B7
:101C98004222934202D82123FB6035E1FB8840F2BF
:101CA8004222934206D9FB88B3F5157F02D222233C
:101CB800FB6029E1FB88B3F5157F06D3FB88B3F5F4
:101CC800197F02D82323FB601EE1FB88B3F5197F37
:101CD80007D9FB8840F27522934202D82423FB607F
:101CE80012E1FB8840F27522934207D9FB8840F243
:101CF8008622934202D82523FB6005E1FB8840F247
:101D08008622934206D9FB88B3F5267F02D2262382
:101D1800FB60F9E0FB88B3F5267F06D3FB88B3F5B3
:101D28002A7F02D82723FB60EEE0FB88B3F52A7FE1
:101D380007D9FB8840F2B922934202D82823FB60D6
:101D4800E2E0FB8840F2B922934207D9FB8840F2CF
:101D5800CA22934202D82923FB60D5E0FB8840F2CF
:101D6800CA22934206D9FB88B3F5377F02D22A23C9
:101D7800FB60C9E0FB88B3F5377F06D3FB88B3F572
:101D88003B7F02D82B23FB60BEE0FB88B3F53B7F8B
:101D980007D9FB8840F2FD22934202D82C23FB602E
:101DA800B2E0FB8840F2FD22934207D9FB8840F25B
:101DB8000E32934202D82D23FB60A5E0FB8840F247
:101DC8000E32934206D9FB88B3F5487F02D22E2300
:101DD800FB6099E0FB88B3F5487F06D3FB88B3F531
:101DE8004C7F02D82F23FB608EE0FB88B3F54C7F35
:101DF80007D9FB8840F24132934202D83023FB6076
:101E080082E0FB8840F24132934207D9FB8840F2D6
:101E18005232934202D83123FB6075E0FB8840F2CE
:101E28005232934206D9FB88B3F5597F02D2322346
:101E3800FB6069E0FB88B3F5597F06D3FB88B3F5EF
:101E48005D7F02D83323FB605EE0FB88B3F55D7FDE
:101E580007D9FB8840F28532934202D83423FB60CD
:101E680052E0FB8840F28532934207D9FB8840F262
:101E78009632934202D83523FB6045E0FB8840F256
:101E88009632934206D9FB88B3F56A7F02D236238D
:101E9800FB6039E0FB88B3F56A7F06D3FB88B3F5AE
:101EA8006E7F02D83723FB602EE0FB88B3F56E7F88
:101EB80007D9FB8840F2C932934202D83823FB6025
:101EC80022E0FB8840F2C932934207D9FB8840F2EE
:101ED800DA32934202D83923FB6015E0FB8840F2DE
:101EE800DA32934206D9FB88B3F57B7F02D23A23D4
:101EF800FB6009E0FB88B3F57B7F05D3FB88B3F56E
:101F0800806F01D83B23FB60FB68DBB218461437AF
:101F1800BD465DF8047B704780B582B000AF0020F5
:101F2800FFF73FFC03461846FFF751FC0346FB71D9
:101F38000120FFF736FC03461846FFF751FD03461C
:101F4800BB71BA79FB791146184601F0DFF800BF7A
:101F58000837BD4680BD000080B58AB000AF034693
:101F68003A60FB710B46BB7107F11F0207F12001B4
:101F780007F12103184601F06BF8FA7F464BA3FBE3
:101F88000213D9080B469B000B445B00D31A87F851
:101F98002730FB7F404AA2FB0323DB0887F8263063
:101FA80097F820203C4BA3FB0213D9080B469B0053
:101FB8000B445B00D31A87F8253097F82030364A4F
:101FC800A2FB0323DB0887F8243097F82120324B43
:101FD800A3FB0213D9080B469B000B445B00D31AE2
:101FE80087F8233097F821302B4AA2FB0323DB081C
:101FF80087F822303B68012B28D197F822303033FC
:10200800DBB23B7597F823303033DBB27B753A236C
:10201800BB7597F824303033DBB2FB7597F8253061
:102028003033DBB23B763A237B7697F82630303371
:10203800DBB2BB7697F827303033DBB2FB76BA7960
:10204800F97907F114000823FFF78EFA3B68002B93
:102058001DD197F822303033DBB23B7397F8233029
:102068003033DBB27B733A23BB7397F824303033B9
:10207800DBB2FB7397F825303033DBB23B74BA79A7
:10208800F97907F10C000523FFF76EFA00BF00BFCE
:102098002837BD4680BD00BFCDCCCCCC80B485B040
:1020A80000AF78600849084B5A697B6813434B6155
:1020B800054B5A697B681340FB60FB6800BF143707
:1020C800BD465DF8047B70470010024080B489B0BB
:1020D80000AFF860B9607A60FB6830331946BB68B6
:1020E80003F440734FF44072BA61BA6992FAA2F2EB
:1020F8007A617A69B2FA82F2D2B2D3409B000B4479
:10210800FB61FB691A68BB6803F01F031F2101FA12
:1021180003F3DB431A407B689B0E03F01F01BB6887
:1021280003F01F0301FA03F31A43FB691A6000BFA7
:102138002437BD465DF8047B704780B48DB000AF8E
:10214800F860B9607A60FB6814331946BB6803F01D
:1021580000734FF00072BA61BA6992FAA2F27A611A
:102168007A69B2FA82F2D2B2D3409B000B44FB6286
:10217800FB6A1A68BB6803F0F8734FF0F8713962AC
:10218800396A91FAA1F1F961F969B1FA81F1C9B233
:10219800CB40072101FA03F3DB431A40BB6803F085
:1021A800F8734FF0F871B962B96A91FAA1F17962DE
:1021B800796AB1FA81F1C9B2CB40796801FA03F3BF
:1021C8001A43FB6A1A6000BF3437BD465DF8047BCA
:1021D8007047000080B485B000AFF860B9607A60DD
:1021E800FB68D3F8B020B9680B4B0B40DB431A40AF
:1021F8007B6803F018030849D940BB681940064BAF
:102208000B401A43FB68C3F8B02000BF1437BD4623
:102218005DF8047B704700BFFEFF070080B483B001
:1022280000AF78607B689B6823F040527B689A60B7
:102238007B689B6823F0104323F03F0343F08052F0
:102248007B689A6000BF0C37BD465DF8047B704719
:1022580080B483B000AF78607B689B6823F000434C
:1022680023F03F0343F001027B689A6000BF0C37FC
:10227800BD465DF8047B704780B483B000AF7860DA
:1022880039607B689B6823F0404323F03F033A683A
:1022980002F08042134343F000427B689A6000BF1B
:1022A8000C37BD465DF8047B704780B483B000AF3F
:1022B80078607B689B6803F00043B3F1004F0CBF64
:1022C80001230023DBB218460C37BD465DF8047BBA
:1022D800704780B483B000AF78607B689B6823F058
:1022E800004323F03F0343F004027B689A6000BF79
:1022F8000C37BD465DF8047B704780B483B000AFEF
:1023080078607B681B6C9BB218460C37BD465DF83D
:10231800047B704780B483B000AF78607B681B682B
:1023280003F00103012B0CBF01230023DBB2184685
:102338000C37BD465DF8047B704780B483B000AFAE
:1023480078607B681B6803F00403042B0CBF01232F
:102358000023DBB218460C37BD465DF8047B704796
:1023680080B483B000AF78607B6804221A6000BF35
:102378000C37BD465DF8047B7047000080B594B00B
:1023880000AF07F1400300221A605A609A6007F113
:10239800280300221A605A609A60DA601A615A614A
:1023A80007F1180300221A605A609A60DA603B4607
:1023B80000221A605A609A60DA601A615A614FF016
:1023C8008050FFF76BFE4FF40030FFF767FE0323E2
:1023D8003B6003237B6000233B613B4619464FF07B
:1023E8009040FEF7DDFA08233B6400237B6400235A
:1023F800BB6407F1400319464FF0A040FDF746FFC4
:102408000023BB620023FB6200233B6300237B6342
:102418000123BB634FF48053FB6307F1280319467C
:102428004FF0A040FDF758FF4FF48033BB61002305
:10243800FB6107F1180319461A48FDF7E7FE4FF04C
:10244800A040FFF7EBFE184B1B689B09174AA2FB3D
:1024580003239A0913469B0013445B001A46144B46
:10246800A3FB0223DB08FB6402E0FB6C013BFB647B
:10247800FB6C002BF9D10F4A06214FF0A040FFF763
:1024880025FE07220B494FF0A040FFF756FE7F229A
:1024980008494FF0A040FFF79DFE00BF5037BD46EA
:1024A80080BD00BF0003005000030020632D3E05DF
:1024B800CDCCCCCC0200300480B500AF7F214FF0EA
:1024C800A040FFF7D9FE00BF4FF0A040FFF7EDFE98
:1024D8000346002BF8D100BF80BD80B500AF4FF098
:1024E800A040FFF7B5FE00BF4FF0A040FFF712FF76
:1024F8000346002BF8D000BF80BD000080B582B035
:1025080000AF78600D4A7B6852F823301A460621DE
:102518004FF0A040FFF7DAFD084A7B6852F8231015
:10252800074A7B6852F823301A464FF0A040FFF75D
:1025380004FE00BF0837BD4680BD00BF2436000832
:102548002C36000880B500AF4FF0A040FFF7C1FE61
:1025580000BF4FF0A040FFF7F0FE0346002BF8D075
:102568004FF0A040FFF7FCFE00BF80BD80B500AF74
:102578004FF0A040FFF7C1FE0346184680BD00009B
:1025880080B485B000AF78600849084B5A697B6809
:1025980013434B61054B5A697B681340FB60FB682A
:1025A80000BF1437BD465DF8047B70470010024039
:1025B80090B484B000AF7860396012483B68DBB2F1
:1025C80010493A68D2B2023251F822103A68120C15
:1025D800D24311403A68120CFA60FA6892FAA2F2F1
:1025E800BA60BA68B2FA82F2D2B214467A68A240E5
:1025F8000A43023340F8232000BF1037BD4690BC81
:10260800704700BF0000014080B489B000AFF86097
:10261800B9607A60FB681A68BB687B617B6993FA6A
:10262800A3F33B613B69B3FA83F3DBB25B0003219D
:1026380001FA03F3DB431A40BB68FB61FB6993FAB9
:10264800A3F3BB61BB69B3FA83F3DBB25B007968C0
:1026580001FA03F31A43FB681A6000BF2437BD462A
:102668005DF8047B704780B489B000AFF860B9604A
:102678007A60FB68DA68BB687B617B6993FAA3F3CD
:102688003B613B69B3FA83F3DBB25B00032101FAD8
:1026980003F3DB431A40BB68FB61FB6993FAA3F3BE
:1026A800BB61BB69B3FA83F3DBB25B00796801FAFB
:1026B80003F31A43FB68DA6000BF2437BD465DF8B0
:1026C800047B704780B483B000AF786039607B6862
:1026D8003A689A6200BF0C37BD465DF8047B7047C4
:1026E80080B58AB000AF07F11C0300221A605A6057
:1026F8009A603B1D00221A605A609A60DA601A617B
:102708005A614FF40020FFF73BFF4FF48000FFF7BA
:1027180037FF4FF40030FFF733FF4FF48020FFF707
:102728002FFF4FF4A0714FF09040FFF7CBFF4021EF
:102738003548FFF7C7FF35490220FFF739FF002268
:102748004FF400513248FFF78EFF00224FF400513A
:102758002F48FFF759FF4FF40053FB6100233B62FA
:10276800012387F82430002387F82530022387F8CF
:10277800263007F11C031846FDF728FF03237B606A
:102788000023BB6000237B613B1D19462048FEF7F0
:1027980007F910237B600023BB6000237B613B1D8E
:1027A80019464FF09040FEF7FBF84FF4A0737B609A
:1027B8000123BB600023FB6000233B6100237B6196
:1027C8003B1D19464FF09040FEF7EAF821237B6045
:1027D8000023BB6000237B613B1D19460A48FEF7B6
:1027E800DFF840237B600123BB600023FB600023EC
:1027F8003B6100237B613B1D19460348FEF7D0F877
:1028080000BF2837BD4680BD000400480300F00023
:102818000008004880B485B000AFBA607B6003460A
:10282800FB810B467B737B6800221A707B7B013B24
:10283800052B65D801A252F823F000BF5D280008D7
:1028480081280008AF280008DD28000811290008A1
:10285800F32800084FF090431A69FB891A40FB8956
:102868009A4253D17B6801221A70FB89102B4DD1F3
:10287800BB6803221A7049E02C4B1A69FB891A407D
:10288800FB899A4244D17B6801221A70FB89202B6C
:1028980002D1BB6800221A70FB89012B38D1BB68B2
:1028A80004221A7034E0224B1A69FB891A40FB890A
:1028B8009A422FD17B6801221A70FB89012B02D121
:1028C800BB6801221A70FB89022B23D1BB68022244
:1028D8001A701FE0174B1A69FB891A40FB899A4244
:1028E8001AD17B6801221A7016E0134B1A69FB890A
:1028F8001A40FB899A4211D17B6801221A700DE0B7
:102908007B6800221A700AE000BF08E000BF06E0FA
:1029180000BF04E000BF02E000BF00E000BF00BF4E
:102928001437BD465DF8047B704700BF00040048BB
:1029380000080048000C00480014004880B485B026
:1029480000AF78607B6803F00703FB600C4BDB6823
:10295800BB60BA684FF6FF031340BB60FB681A02FE
:10296800BB68134343F0BF6343F40033BB60044ABE
:10297800BB68D36000BF1437BD465DF8047B704761
:1029880000ED00E080B400AF054A054B1B6843F03A
:102998000103136000BFBD465DF8047B704700BFAC
:1029A8000010024080B400AF064B1B6803F002031E
:1029B800022B0CBF01230023DBB21846BD465DF88D
:1029C800047B70470010024080B483B000AF786089
:1029D8000749074B1B6823F0F8027B68DB001343A9
:1029E8000B6000BF0C37BD465DF8047B704700BF25
:1029F8000010024080B400AF054A054B1B6A43F043
:102A08000103136200BFBD465DF8047B704700BF39
:102A18000010024080B483B000AF78600649064BCE
:102A28001B6A23F018027B6813430B6200BF0C3744
:102A3800BD465DF8047B70470010024080B400AFCB
:102A4800064B1B6A03F00203022B0CBF0123002371
:102A5800DBB21846BD465DF8047B704700100240A3
:102A680080B483B000AF78600649064B5B6823F0FA
:102A780003027B6813434B6000BF0C37BD465DF80B
:102A8800047B70470010024080B400AF044B5B68C1
:102A980003F00C031846BD465DF8047B704700BF81
:102AA8000010024080B483B000AF78600649064B3E
:102AB8005B6823F0F0027B6813434B6000BF0C3760
:102AC800BD465DF8047B70470010024080B483B0B7
:102AD80000AF78600649064B5B6823F4E0627B68C8
:102AE80013434B6000BF0C37BD465DF8047B70474D
:102AF8000010024080B483B000AF78600649064BEE
:102B08005B6823F460527B6813434B6000BF0C374B
:102B1800BD465DF8047B70470010024080B483B066
:102B280000AF78600649064B1B6A23F440727B6845
:102B380013430B6200BF0C37BD465DF8047B70473A
:102B48000010024080B400AF044B1B6A03F44073CA
:102B58001846BD465DF8047B704700BF0010024070
:102B680080B400AF054A054B1B6A43F40043136267
:102B780000BFBD465DF8047B704700BF00100240EF
:102B880080B400AF054A054B1B6A43F480331362D7
:102B980000BFBD465DF8047B704700BF00100240CF
:102BA80080B400AF054A054B1B6A23F480331362D7
:102BB80000BFBD465DF8047B704700BF00100240AF
:102BC80080B485B000AF78600849084BDA697B6843
:102BD8001343CB61054BDA697B681340FB60FB68E4
:102BE80000BF1437BD465DF8047B704700100240F3
:102BF80080B485B000AF78600849084B9A697B6853
:102C080013438B61054B9A697B681340FB60FB6833
:102C180000BF1437BD465DF8047B704700100240C2
:102C280080B483B000AF78600649064B1B6823F078
:102C380007027B6813430B6000BF0C37BD465DF885
:102C4800047B70470020024080B400AF044B1B682F
:102C580003F007031846BD465DF8047B704700BFC4
:102C68000020024080B400AF054A054B1B6843F4BE
:102C78008073136000BFBD465DF8047B704700BFDA
:102C88000070004080B590B000AF0120FFF7B0FFA2
:102C98004FF08050FFF794FF0720FFF74FFE00F03A
:102CA800D9F8FFF71DFDFEF739FD00F08FF9FEF7A3
:102CB8006EFD624A07F1380392E803001860043396
:102CC800198002330A0C1A7007F1380007232A22E8
:102CD8000121FEF749FC4FF4FA60FEF7E5FAFEF72A
:102CE800D1FC012248210020FFF736F9052387F897
:102CF800373007F1370319460220FEF709FB97F82A
:102D08003730002B13D1FEF7BDFC4D4A07F13003D5
:102D180092E8030018600433197007F130000523A6
:102D280031220221FEF720FCC820FEF7BDFA97F8F1
:102D38003730042B11D1FEF7A5FC424A07F12403D2
:102D480007CA03C31A8007F124000A23222202219A
:102D5800FEF70AFCC820FEF7A7FA07F13703194661
:102D68000320FEF7D5FA97F83730012B34D107F155
:102D7800370319460220FEF7CBFAFEF783FC00233F
:102D880087F83F30304A07F11C0392E8030083E8D4
:102D9800030007F11C00082328220221FEF7E4FBA8
:102DA8004FF44870FEF780FA07E007F13703194639
:102DB8000220FEF7ADFAFEF709FC97F83730002B32
:102DC800F3D1012387F83F3097F83F30012B03D127
:102DD800FFF7A2F8FEF756FC97F83730022B11D10F
:102DE800FEF750FC194A07F1100307CA03C31A80FB
:102DF80007F110000A2322220221FEF7B5FBC820A2
:102E0800FEF752FA07F1370319460120FEF780FA58
:102E180097F83730032B7FF464AFFEF733FC0C4A86
:102E28003B1D07CA03C31A80381D0A232222022128
:102E3800FEF79AFBC820FEF737FA52E7E835000894
:102E4800F0350008F8350008043600080C3600088C
:102E58001836000880B500AF0020FFF7E1FE00BF7C
:102E6800FFF7F2FE0346002BFAD1FFF78BFD00BFF8
:102E7800FFF798FD0346012BFAD11020FFF7A4FDB8
:102E8800FFF7F0FEFFF75EFE0346B3F5807F03D041
:102E9800FFF776FEFFF784FE0020FFF7BBFDFFF784
:102EA800A9FD00BFFFF7CAFD0346012BFAD1FFF7C2
:102EB80049FE0346B3F5807F03D04FF48070FFF7D7
:102EC8002DFEFFF74DFE9020FFF7ECFD4FF48060DC
:102ED800FFF7FCFD0020FFF70DFE0020FFF7C0FD07
:102EE80000BFFFF7D1FD0346002BFAD10348FEF7D8
:102EF800CDF90248FEF7FCF900BF80BD80841E00B2
:102F080080B400AF054A054B1B6A43F400431362C3
:102F180000BFBD465DF8047B704700BF001002404B
:102F280080B483B000AF786039607B681B6923F494
:102F3800FE023B681B041A437B681A6100BF0C370A
:102F4800BD465DF8047B704780B483B000AF7860FD
:102F580039607B681B6923F4FF4323F07F033A68D9
:102F68001A437B681A6100BF0C37BD465DF8047BC5
:102F7800704780B483B000AF78607B681B681B0C17
:102F880003F03F0318460C37BD465DF8047B7047D5
:102F980080B483B000AF78607B681B681B0A03F0BD
:102FA8007F0318460C37BD465DF8047B704780B434
:102FB80083B000AF78607B681B6803F07F03184616
:102FC8000C37BD465DF8047B7047000080B586B0BD
:102FD80000AF07F10C0300221A605A609A60FFF7ED
:102FE8008FFF0023FB607F233B61FF237B6107F199
:102FF8000C0319461548FDF775FE7F211348FFF7A6
:103008008FFFFF211148FFF79FFF0023BB603B465E
:1030180000221A605A6007F108031846FDF7F2FF0C
:103028003B461846FDF734FF07F108031A4600210E
:103038000648FDF743FF3B461A4600210348FDF7C3
:1030480081FE00BF1837BD4680BD00BF0028004084
:1030580090B585B000AFF860B9607A602A48FFF78C
:1030680088FF0346DBB21B11DBB203F00F03DBB2B0
:103078001A46920013445B00DCB22348FFF779FF3D
:103088000346DBB203F00F03DBB22344DAB2FB687A
:103098001A701D48FFF77CFF0346DBB21B11DBB239
:1030A80003F00F03DBB21A46920013445B00DCB254
:1030B8001548FFF76DFF0346DBB203F00F03DBB2E1
:1030C8002344DAB2BB681A700F48FFF770FF034653
:1030D800DBB21B11DBB203F00F03DBB21A4692001E
:1030E80013445B00DCB20848FFF761FF0346DBB21C
:1030F80003F00F03DBB22344DAB27B681A7000BF17
:103108001437BD4690BD00BF0028004080B588B088
:1031180000AF03460A46FB711346BB7107F114035F
:1031280000221A605A609A60FFF7EAFE184A184BA4
:103138009B6843F02003936000237B617F23BB617E
:10314800FF23FB6107F1140319461148FDF7CAFD77
:103158007F210F48FFF7E4FEFF210D48FFF7F4FE3B
:1031680007F10C0300221A605A60BA79F97907F15D
:103178000C03184600F00EF807F10C031A4600215C
:103188000348FDF7DFFD00BF2037BD4680BD00BF07
:103198000028004080B483B000AF78600B46FB7015
:1031A8001346BB707B6800221A607B68FA781A7134
:1031B8007B68BA785A717B6800229A7100BF0C3715
:1031C800BD465DF8047B704780B485B000AF786079
:1031D8000849084B5A697B6813434B61054B5A6988
:1031E8007B681340FB60FB6800BF1437BD465DF881
:1031F800047B70470010024080B485B000AF78604F
:103208000849084B9A697B6813438B61054B9A6997
:103218007B681340FB60FB6800BF1437BD465DF850
:10322800047B70470010024080B483B000AF786020
:103238007B681B6843F040027B681A6000BF0C374C
:10324800BD465DF8047B704780B483B000AF7860FA
:1032580039607B685B6823F010023B681A437B681F
:103268005A6000BF0C37BD465DF8047B704780B4D8
:1032780083B000AF786039607B685B6823F4805264
:103288003B681A437B685A6000BF0C37BD465DF83F
:10329800047B704780B483B000AF78607B685B685C
:1032A80023F008027B685A6000BF0C37BD465DF802
:1032B800047B704780B483B000AF78607B689B68FC
:1032C80003F00203022B01D1012300E0002318467A
:1032D8000C37BD465DF8047B704780B483B000AFFF
:1032E80078607B689B6803F08003802B01D1012301
:1032F80000E0002318460C37BD465DF8047B704794
:1033080080B485B000AF78600B46FB707B680C33E7
:10331800FB60FB68FA781A7000BF1437BD465DF889
:10332800047B704780B483B000AF786039607B68F5
:103338003A689A6100BF0C37BD465DF8047B704758
:1033480080B483B000AF786039607B683A689A626D
:1033580000BF0C37BD465DF8047B704780B590B060
:1033680000AF07F1180328220021184600F024F9BD
:103378003B4600221A605A609A60DA601A615A6104
:103388004FF48050FFF738FF4FF40030FFF71CFF71
:10339800A0233B6002237B600323BB600023FB6008
:1033A80000233B6105237B613B4619464FF0904063
:1033B800FDF7F6FA0023BB614FF48273FB614FF40B
:1033C800E0633B6202237B620123BB624FF400731C
:1033D800FB6208233B6300237B630023BB63072353
:1033E800FB6307F1180319460A48FDF7DDFE0021C3
:1033F8000848FFF729FF0748FFF74CFF4FF48051B3
:103408000448FFF734FF00F007F800BF4037BD4617
:1034180080BD00BF0030014080B500AF0248FFF713
:1034280003FF00BF80BD00BF0030014080B500AF82
:1034380040210248FFF784FF00BF80BD0004004818
:1034480080B500AF40210248FFF76CFF00BF80BD88
:103458000004004880B582B000AF0346FB7100BF8E
:103468000E48FFF73AFF0346002BF9D1FB791946BE
:103478000A48FFF745FF00BF0848FFF71BFF034650
:10348800002BF9D000BF0548FFF727FF0346002BA4
:10349800F9D100BF0837BD4680BD00BF00300140EC
:1034A80080B400AFFEE780B400AFFEE780B400AFA1
:1034B800FEE780B400AFFEE780B400AFFEE780B45B
:1034C80000AF00BFBD465DF8047B704780B400AF15
:1034D80000BFBD465DF8047B704780B400AF00BFF5
:1034E800BD465DF8047B704780B400AF00BFBD46A1
:1034F8005DF8047B7047000080B400AF064A064BB5
:10350800D3F8883043F47003C2F8883000BFBD4652
:103518005DF8047B704700BF00ED00E0DFF834D0B1
:103528000D480E490E4A002302E0D458C450043313
:10353800C4188C42F9D30B4A0B4C002301E01360EA
:103548000432A242FBD3FFF7D7FF00F011F8FFF7D0
:1035580099FBFEE700300020000000200403002053
:103568003C3600080403002020030020FEE700008A
:1035780070B50D4E0D4CA41BA4100025A54209D111
:103588000B4E0C4C00F020F8A41BA4100025A542FB
:1035980005D170BD56F8253098470135EEE756F845
:1035A800253098470135F2E73436000834360008EC
:1035B800343600083836000802440346934200D1E6
:1035C800704703F8011BF9E7F8B500BFF8BC08BC61
:1035D8009E467047F8B500BFF8BC08BC9E467047C9
:1035E80057656C636F6D6500456E74657200000009
:1035F80050617374696C6C612033000053657420EA
:1036080074696D6550617374696C6C612032000077
:1036180050617374696C6C612031000002003004E1
:0C3628000400600807000000070000001C
:04363400AD010008DC
:0436380089010008FC
:10363C00000000000000003E4551453E003E6B6F0F
:10364C006B3E001C3E7C3E1C00183C7E3C1800303F
:10365C00367F363000185C7E5C18000018180000AD
:10366C0000FFE7E7FFFF003C24243C0000C3DBDB4A
:10367C00C3FF0030484A360E00062979290600603F
:10368C00703F020400607E0A353F002A1C361C2A5B
:10369C0000007F3E1C0800081C3E7F000014367F93
:1036AC00361400005F005F000006097F017F0022D6
:1036BC004D5559220060606060000014B6FFB614CE
:1036CC000004067F06040010307F30100008083E0E
:1036DC001C0800081C3E08080078404040400008C8
:1036EC003E083E0800303C3F3C3000030F3F0F03C8
:1036FC000000000000000000065F06000007030049
:10370C00070300247E247E2400242B6A120000630D
:10371C00130864630036495620500000070300006C
:10372C0000003E4100000000413E000000083E1C2D
:10373C003E080008083E08080000E0600000000891
:10374C00080808080000606000000020100804024F
:10375C00003E5149453E0000427F40000062514905
:10376C004946002249494936001814127F10002F8F
:10377C0049494931003C4A49493000017109050366
:10378C0000364949493600064949291E00006C6C2F
:10379C0000000000EC6C0000000814224100002422
:1037AC002424242400004122140800020159090693
:1037BC00003E415D551E007E1111117E007F49496E
:1037CC004936003E41414122007F4141413E007F4C
:1037DC0049494941007F09090901003E4149497A9B
:1037EC00007F0808087F0000417F41000030404006
:1037FC00403F007F08142241007F40404040007F42
:10380C000204027F007F0204087F003E4141413EDA
:10381C00007F09090906003E4151215E007F09091C
:10382C0019660026494949320001017F0101003F18
:10383C004040403F001F2040201F003F403C403F85
:10384C0000631408146300070870080700714945E9
:10385C00430000007F4141000002040810200000DA
:10386C0041417F00000402010204008080808080BE
:10387C00000003070000002054545478007F444497
:10388C00443800384444442800384444447F0038C9
:10389C005454540800087E0909000018A4A4A47C00
:1038AC00007F040478000000007D4000004080840C
:1038BC007D00007F102844000000007F4000007C49
:1038CC0004180478007C040478000038444444381C
:1038DC0000FC444444380038444444FC00447844DC
:1038EC00040800085454542000043E442400003CB6
:1038FC0040207C00001C2040201C003C6030603CC0
:10390C00006C10106C00009CA0603C0000645454CF
:10391C004C0000083E414100000000770000000010
:10392C0041413E08000201020100003C2623263CD6
:04393C0000127A00FB
:040000050800352595
:00000001FF
